:100000000C945A000C9482000C9482000C94820090
:100010000C9482000C9482000C9482000C94820058
:100020000C9482000C9482000C9482000C94820048
:100030000C9482000C9482000C9482000C94820038
:100040000C94A6050C9482000C9426080C94580875
:100050000C9482000C9482000C9482000C94820018
:100060000C9479040C948200000000080002010046
:100070000003040700000000000000000102040863
:100080001020408001020408102001020408102002
:10009000040404040404040402020202020203032E
:1000A0000303030300000000250028002B001003B9
:1000B0002004880811241FBECFEFD8E0DEBFCDBFDB
:1000C00011E0A0E0B1E0E2E9F3E102C005900D9299
:1000D000AC3AB107D9F723E0ACEAB1E001C01D9218
:1000E000AA36B207E1F710E0C4EBD0E004C02297D3
:1000F000FE010E94C309CE3AD107C9F70E94CC087D
:100100000C94C7090C94000048EB5BE060E070E0E1
:1001100089EB91E00E945E0220E835E240E050E089
:100120006DEC72E089EB91E00E94740261E089EB72
:1001300091E00E943402882391F060E071E08091A8
:10014000FB019091FC010E9419096AE070E080E0D7
:1001500090E00E941F0689EB91E00E945D0241E061
:1001600060E089EB91E00E94F20268E070E081E0DB
:1001700092E00E94140468E671E081E092E00E943F
:10018000160461E971E081E092E00E941B0426E020
:1001900040E855E260E070E08DEC92E00C94C4071A
:1001A000CF92DF92EF92FF920F931F930E94F00580
:1001B000672B682B692B39F40E94F00562307105BA
:1001C00081059105B0F189EB91E00E949B0160935C
:1001D000B1017093B2018093B3019093B401009187
:1001E000B5011091B6012091B7013091B8016017A7
:1001F00071078207930740F46093B5017093B601CD
:100200008093B7019093B8010091B5011091B601A8
:100210002091B7013091B8016B017C01C01AD10A5D
:10022000E20AF30A970186010A3F1105210531050B
:1002300060F464E670E080E090E01F910F91FF9021
:10024000EF90DF90CF900C941F066093B5017093F0
:10025000B6018093B7019093B80144EF51E060E09C
:1002600070E089EB91E00E949D0161E089EB91E0F3
:100270000E943402882309F161E089EB91E00E9439
:10028000B90162E171E08091FB019091FC010E9453
:1002900019090E94F005AB01BC012AE030E0809111
:1002A000FB019091FC010E948A0989EB91E00E9478
:1002B0001F0289EB91E00E945D0265E070E080E042
:1002C00090E00E941F0689EB91E00E942802B1CFC6
:1002D0000F931F93CF93DF93019719F0C0E0D0E005
:1002E00007C081E092E00E9439038093AC0114C002
:1002F00081E092E00E943103029774F00091AF0117
:100300001091B0010C0F1D1F81E092E00E94390393
:10031000F80180832196ECCFDF91CF911F910F914F
:1003200008956091AD017091AE0142E050E081E02E
:1003300092E00C948B030C94F005CF93DF93EC01C7
:100340004E875F87688B798B1A8A1B8A1C8A1D8A65
:100350004E815F81688579854A875B876C877D8759
:100360000E94F0056E837F8388879987DF91CF9104
:100370000895BF92CF92DF92EF92FF920F931F9357
:10038000CF93DF938C01B62E0E94F0056B017C01A8
:10039000E801CE5BDF4F64E171E0888199810E94C2
:1003A00019094AE050E06B2D888199810E949709D4
:1003B0006BE171E0888199810E9419092AE030E09F
:1003C000B701A601888199810E948A096DE171E0D7
:1003D000888199810E941909F80186819781A085F9
:1003E000B185B701A601481B590B6A0B7B0B2AE0AC
:1003F00030E0888199810E948A096DE171E08881ED
:1004000099810E941909F80146815781608571859B
:1004100082859385A485B585481B590B6A0B7B0B98
:100420002AE030E088819981DF91CF911F910F916F
:10043000FF90EF90DF90CF90BF900C948A098E5B75
:100440009F4F6FE171E0FC01808191810C941F0945
:10045000CF93DF93EC010E94F0056E837F83888742
:100460009987DF91CF9108950F931F93CF93DF93D7
:10047000EC01611116C00E94F0050A811B812C81DC
:100480003D81601B710B820B930B643671058105F6
:10049000910538F463E070E080E090E00E941F0670
:1004A000EACF0E94F0056A837B838C839D8381E081
:1004B000DF91CF911F910F9108950895FC01EC5B9E
:1004C000FF4F1082118212821382FC01128213826A
:1004D00014821582411551056105710521F0CB018A
:1004E000BA010C941F060895FB01BA01A9018E5BA5
:1004F0009F4FDC01ED93FC9326E0CF010C94C407E1
:100500008E5B9F4FDC018D919C91DC01ED91FC9104
:100510000680F781E02D099508958E5B9F4FDC01E1
:100520008D919C91DC01ED91FC910480F581E02D91
:10053000099508951F93CF93DF93EC01162F0E9426
:10054000F0056A837B838C839D83CE5BDF4F66E2FD
:1005500071E0888199810E9419094AE050E0612F79
:10056000888199810E9497096DE271E08881998163
:100570000E94190962E370E080E090E0DF91CF9182
:100580001F910C941F061F93CF93DF93EC01162F3E
:100590008E89882311F1CE010E948D02811102C043
:1005A00085E61CC0CE010E948D028823C9F3CE01CE
:1005B0000E948002883689F048F4883569F08336D5
:1005C00089F7612FCE010E949A0207C0813729F076
:1005D000863741F786E702C01E8A83E6DF91CF9116
:1005E0001F9108950F931F93CF93DF931F92CDB761
:1005F000DEB78C01611108C0F801468B0F90DF91C6
:10060000CF911F910F91089581E0F801868B60E0F2
:10061000C80149830E94C30249818336C1F7ECCFE8
:100620001092BF011092C0011092C1011092C2013C
:100630001092C3011092C4011092C5011092C6011C
:100640001092C7011092C8011092C9011092CA01FC
:100650001092CB011092CC011092CD011092CE01DC
:1006600008958091340290E020913502821B910917
:1006700008952091350280913402281750F4E22F1A
:10068000F0E0EA5CFD4F808190E02F5F209335021F
:1006900008958FEF9FEF0895E09135028091340225
:1006A000E81730F4F0E0EA5CFD4F808190E00895B7
:1006B0008FEF9FEF08950895E0910D02F0910E02E3
:1006C0003097E1F030913502209134023217B0F0CA
:1006D00040E0242F30E02617370754F4DC01A20F46
:1006E000B31F5C91D901AA5CBD4F5C934F5FF1CF02
:1006F0001092350260933402CB0109940895E09181
:100700000F02F0911002309729F01092130210920C
:10071000120209940895CF92DF92EF92FF920F9305
:100720001F93CF93DF937C01CB018A0120911102AB
:10073000222389F0EB016B01C40ED51ECC15DD051B
:1007400069F06991D701ED91FC910190F081E02D64
:10075000C7010995F3CF642F0E944604C801DF91B9
:10076000CF911F910F91FF90EF90DF90CF90089560
:10077000CF93DF931F92CDB7DEB76983209111022B
:100780002223D1F020911202203240F021E030E00B
:10079000FC013383228380E090E015C08091130236
:1007A000E82FF0E0EC5EFD4F998190838F5F80939E
:1007B00013028093120205C061E0CE0101960E94EF
:1007C000460481E090E00F90DF91CF910895FC0105
:1007D0001382128248EE53E060E070E04483558358
:1007E0006683778382E891E09183808308951092F5
:1007F00035021092340210921302109212020C94DD
:100800002404CF93DF93EC01862F0E9442048FE7EC
:1008100093E00E9464048CE593E00E945F04CE01A3
:10082000DF91CF910C94F7030C94010470930E02A6
:1008300060930D0208957093100260930F02089563
:1008400081E092E00C94E7031092C30281E0809370
:10085000C1021092C00261E082E10E94AB0661E039
:1008600083E10E94AB06E9EBF0E080818E7F80831C
:1008700080818D7F808388E48093B80085E48093B5
:10088000BC000895880F8093BA000895613298F4EF
:100890002091C302243089F460937802FC018AE736
:1008A00092E0DC012A2F281B261718F421912D93A2
:1008B000F9CF80E0089581E0089582E00895909353
:1008C000BD028093BC0208959093BF028093BE0244
:1008D000089585ED8093BC008091BC0084FDFCCF21
:1008E0001092C302089585EC8093BC001092C3025D
:1008F00008951F920F920FB60F9211242F933F93DA
:100900004F935F936F937F938F939F93AF93BF9317
:10091000EF93FF938091B900887F803609F49CC0E3
:1009200068F5883209F45BC090F4803109F454C052
:1009300038F4882309F4F5C0883009F44DC0F5C0B7
:10094000883109F44CC0803209F45DC0EEC08034B7
:1009500009F468C048F4803309F455C0883309F0BD
:10096000E4C080935602A8C0803509F44FC0883592
:1009700009F45DC0883409F0D8C0D5C0883909F4BD
:10098000C6C0A8F4883709F467C038F4883609F47B
:1009900063C0803709F460C0C8C0883809F4B7C0A4
:1009A000803909F45FC0803809F0BFC05BC0803B6C
:1009B00009F485C038F4803A09F466C0883A09F42D
:1009C0007EC0B3C0803C09F4A6C0883C09F4A3C033
:1009D000883B09F489C0A9C08091C20210C09091DF
:1009E0009B0280919A02981770F5E0919B0281E03A
:1009F0008E0F80939B02F0E0E456FD4F8081809340
:100A0000BB0085EC85C0809356028DC0E0919B02AF
:100A100081E08E0F80939B028091BB00F0E0E45652
:100A2000FD4F808390919B0280919A026DC0E0916E
:100A30009B0281E08E0F80939B028091BB00F0E0CF
:100A4000E456FD4F80838091C10281116CC081E02A
:100A50008093C00284EA60C083E08093C302109256
:100A60005702CFCF80915702803208F050C0E091FA
:100A7000570281E08E0F809357028091BB00F0E017
:100A8000E85AFD4F8083BDCF80915702803230F409
:100A9000E0915702F0E0E85AFD4F10820E9469048D
:100AA0006091570270E0E091BC02F091BD0288E5D0
:100AB00092E00995109257020E94730436C084E0B8
:100AC0008093C3021092790210927802E091BE02E4
:100AD000F091BF02099580917802811105C081E0F3
:100AE0008093780210927A02E091790281E08E0F71
:100AF00080937902F0E0E658FD4F80818093BB003F
:100B00009091790280917802981708F47ACF85E85D
:100B10008093BC000AC085EC8093BC001092C30295
:100B200004C0109256020E946904FF91EF91BF9198
:100B3000AF919F918F917F916F915F914F913F9175
:100B40002F910F900FBE0F901F9018951F920F922C
:100B50000FB60F9211242F933F938F939F93AF93D0
:100B6000BF938091C5029091C602A091C702B09137
:100B7000C8023091C40223E0230F2D3720F40196E0
:100B8000A11DB11D05C026E8230F0296A11DB11DB0
:100B90002093C4028093C5029093C602A093C7021B
:100BA000B093C8028091C9029091CA02A091CB0271
:100BB000B091CC020196A11DB11D8093C902909302
:100BC000CA02A093CB02B093CC02BF91AF919F9188
:100BD0008F913F912F910F900FBE0F901F901895FE
:100BE0002FB7F8946091C5027091C6028091C70238
:100BF0009091C8022FBF08953FB7F8948091C90221
:100C00009091CA02A091CB02B091CC0226B5A89BCC
:100C100005C02F3F19F00196A11DB11D3FBF6627EA
:100C2000782F892F9A2F620F711D811D911D42E02F
:100C3000660F771F881F991F4A95D1F70895CF92A5
:100C4000DF92EF92FF92CF93DF936B017C010E94C2
:100C5000FC05EB01C114D104E104F10489F00E9408
:100C60009E090E94FC056C1B7D0B683E734090F34F
:100C700081E0C81AD108E108F108C851DC4FEACF79
:100C8000DF91CF91FF90EF90DF90CF90089578940F
:100C900084B5826084BD84B5816084BD85B5826081
:100CA00085BD85B5816085BDEEE6F0E0808181601F
:100CB0008083E1E8F0E0108280818260808380811F
:100CC00081608083E0E8F0E0808181608083E1EBF7
:100CD000F0E0808184608083E0EBF0E080818160DF
:100CE0008083EAE7F0E08081846080838081826095
:100CF000808380818160808380818068808310927E
:100D0000C1000895833081F028F4813099F0823059
:100D1000A1F008958730A9F08830B9F08430D1F47B
:100D2000809180008F7D03C0809180008F778093B9
:100D30008000089584B58F7702C084B58F7D84BD0F
:100D400008958091B0008F7703C08091B0008F7DAF
:100D50008093B00008950F931F93CF93DF931F925A
:100D6000CDB7DEB7282F30E0F901E859FF4F849165
:100D7000F901E458FF4F1491F901E057FF4F049136
:100D80000023C9F0882321F069830E9482066981CB
:100D9000E02FF0E0EE0FFF1FEC55FF4FA591B4914F
:100DA0009FB7F8948C91611103C01095812301C005
:100DB000812B8C939FBF0F90DF91CF911F910F914B
:100DC0000895FC01818D228D90E0805C9F4F821BF5
:100DD00091098F7399270895FC01918D828D981741
:100DE00031F0828DE80FF11D858D90E008958FEF31
:100DF0009FEF0895FC01918D828D981761F0828D8F
:100E0000DF01A80FB11D5D968C91928D9F5F9F733E
:100E1000928F90E008958FEF9FEF08958EE798E00E
:100E2000892B49F080E090E0892B29F00E947E0810
:100E300081110C9400000895FC01848DDF01A80F3E
:100E4000B11DA35ABF4F2C91848D90E001968F73F2
:100E50009927848FA689B7892C93A089B1898C9111
:100E600080648C93938D848D981306C00288F389D7
:100E7000E02D80818F7D80830895CF93DF93EC01F7
:100E8000888D8823C9F0EA89FB89808185FD05C0AA
:100E9000A889B9898C9186FD0FC00FB607FCF5CFE4
:100EA000808185FFF2CFA889B9898C9185FFEDCF2C
:100EB000CE010E941C07E7CFDF91CF910895CF921A
:100EC000DF92FF920F931F93CF93DF931F92CDB7C3
:100ED000DEB76C0181E0D60158968C9358975B96EB
:100EE0009C915B975C968C915C97981307C0509689
:100EF000ED91FC915197808185FD2EC0F601038D07
:100F000010E00F5F1F4F0F731127F02EF601848D35
:100F1000F81211C00FB607FCF9CFD6015096ED912B
:100F2000FC915197808185FFF1CFC60169830E94B2
:100F30001C076981EBCF838DE80FF11DE35AFF4F4A
:100F40006083D6015B960C935B975296ED91FC9172
:100F50005397808180620CC0D6015696ED91FC912A
:100F6000579760835096ED91FC91519780818064F2
:100F7000808381E090E00F90DF91CF911F910F91DE
:100F8000FF90DF90CF900895BF92CF92DF92EF92C3
:100F9000FF92CF93DF93EC016A017B01B22EE889C7
:100FA000F98982E08083411581EE5807610571055A
:100FB000A1F060E079E08DE390E0A70196010E9446
:100FC0009F09215031094109510956954795379597
:100FD0002795211580E1380798F0E889F989108272
:100FE00060E874E88EE190E0A70196010E949F09F5
:100FF0002150310941095109569547953795279553
:10100000EC85FD853083EE85FF852083188EEC8985
:10101000FD89B082EA89FB89808180618083EA89C9
:10102000FB89808188608083EA89FB898081806870
:101030008083EA89FB8980818F7D8083DF91CF91D6
:10104000FF90EF90DF90CF90BF9008951F920F9286
:101050000FB60F9211242F938F939F93EF93FF93CB
:10106000E091DD02F091DE028081E091E302F091F7
:10107000E40282FD12C090818091E6028F5F8F733F
:101080002091E702821751F0E091E602F0E0E3538D
:10109000FD4F958F8093E60201C08081FF91EF9113
:1010A0009F918F912F910F900FBE0F901F901895C9
:1010B0001F920F920FB60F9211242F933F934F93CD
:1010C0005F936F937F938F939F93AF93BF93EF93B0
:1010D000FF938DEC92E00E941C07FF91EF91BF916E
:1010E000AF919F918F917F916F915F914F913F91C0
:1010F0002F910F900FBE0F901F9018958DEC92E0DE
:101100000E94E10621E0892B09F420E0822F089556
:101110001092D0021092CF0288EE93E0A0E0B0E0EF
:101120008093D1029093D202A093D302B093D402C1
:1011300082E991E09093CE028093CD0285EC90E01D
:101140009093DA028093D90284EC90E09093DC02D1
:101150008093DB0280EC90E09093DE028093DD02CE
:1011600081EC90E09093E0028093DF0282EC90E0CB
:101170009093E2028093E10286EC90E09093E40287
:101180008093E3021092E6021092E7021092E802C6
:101190001092E902089508950E9447060E94CB0824
:1011A0000E948400CEE0D7E00E94D0002097E1F3B7
:1011B0000E940E07F9CFCF92DF92EF92FF920F932A
:1011C0001F93CF93DF936C017A01EB01E60EF71EBC
:1011D00000E010E0CE15DF0561F06991D601ED91D8
:1011E000FC910190F081E02DC6010995080F191FAF
:1011F000F1CFC801DF91CF911F910F91FF90EF9038
:10120000DF90CF9008956115710581F0DB010D909D
:101210000020E9F7AD0141505109461B570BDC0195
:10122000ED91FC910280F381E02D099480E090E043
:1012300008950C94030963E371E00C9403090F9380
:101240001F93CF93DF93EC010E9403098C01CE0121
:101250000E941B09800F911FDF91CF911F910F9169
:1012600008958F929F92AF92BF92CF92DF92EF92AA
:10127000FF920F931F93CF93DF93CDB7DEB7A19764
:101280000FB6F894DEBF0FBECDBF7C01C42EE52F94
:10129000CB01D22E19A221E02D1510F02AE0D22E7A
:1012A0008E010F5D1F4F8D2C912CA12CB12C6C2D1C
:1012B0007E2FA50194010E949F098C2DD29E80193A
:1012C0001124015011098A3014F4805D01C0895C39
:1012D000F8018083211531054105510521F0C22E09
:1012E000E32FCA01E4CFB801C7010E940309A19608
:1012F0000FB6F894DEBF0FBECDBFDF91CF911F9127
:101300000F91FF90EF90DF90CF90BF90AF909F90A4
:101310008F9008952115310541F4DC01ED91FC9188
:101320000190F081E02D642F09940C9431099A0109
:10133000462F50E060E070E00C948A090895A1E225
:101340001A2EAA1BBB1BFD010DC0AA1FBB1FEE1F3F
:10135000FF1FA217B307E407F50720F0A21BB30B8A
:10136000E40BF50B661F771F881F991F1A9469F706
:1013700060957095809590959B01AC01BD01CF0162
:101380000895EE0FFF1F0590F491E02D0994F89455
:02139000FFCF8D
:10139200564D4450565F317C315F564D4450560D88
:1013A2000A007C00564D4450455F003A323A005FD5
:1013B200564D44504500564D4450435F005F564DD4
:1013C2004450430D0A004572726F723A20417474A0
:1013D200656D707420746F2073657420612072656E
:1013E20061642D6F6E6C79207661726961626C65E1
:1013F200206F7220646174612074797065206E6F51
:101402007420737570706F727465640D0A00000049
:101412000000B8038B03310339034C035B03000064
:1014220000005F07DB08E106FA06EC063D076E6185
:0C1432006E00696E66006F7666002E008A
:107800000C94343C0C94513C0C94513C0C94513CE1
:107810000C94513C0C94513C0C94513C0C94513CB4
:107820000C94513C0C94513C0C94513C0C94513CA4
:107830000C94513C0C94513C0C94513C0C94513C94
:107840000C94513C0C94513C0C94513C0C94513C84
:107850000C94513C0C94513C0C94513C0C94513C74
:107860000C94513C0C94513C11241FBECFEFD8E036
:10787000DEBFCDBF11E0A0E0B1E0ECE9FFE702C060
:1078800005900D92A230B107D9F712E0A2E0B1E065
:1078900001C01D92AD30B107E1F70E942D3D0C945F
:1078A000CC3F0C94003C982F959595959595959582
:1078B000905D8F708A307CF0282F295A8091C0000B
:1078C00085FFFCCF9093C6008091C00085FFFCCF60
:1078D0002093C6000895282F205DF0CF982F809127
:1078E000C00085FFFCCF9093C6000895EF92FF92F1
:1078F0000F931F93EE24FF2487018091C00087FD22
:1079000017C00894E11CF11C011D111D81E4E8164B
:1079100082E4F8068FE0080780E0180770F3E09132
:107920000401F091050109958091C00087FFE9CF1E
:107930008091C6001F910F91FF90EF9008950E94D3
:10794000763C982F8091C00085FFFCCF9093C600B5
:1079500091362CF490330CF09053892F089597555D
:10796000892F08951F930E949F3C182F0E949F3CCF
:107970001295107F810F1F9108951F93182F882350
:1079800021F00E94763C1150E1F71F9108951F935A
:10799000182F0E94763C803249F0809103018F5F5E
:1079A000809303018530C1F01F9108958091C0003C
:1079B00085FFFCCF84E18093C6008091C00085FFE5
:1079C000FCCF1093C6008091C00085FFFCCF80E102
:1079D0008093C6001F910895E0910401F091050184
:1079E00009951F9108950E94763C803241F0809164
:1079F00003018F5F80930301853081F008958091AA
:107A0000C00085FFFCCF84E18093C6008091C00058
:107A100085FFFCCF80E18093C6000895E0910401CA
:107A2000F09105010995089540E951E08823A1F0FE
:107A30002D9A28EE33E0FA013197F1F721503040CA
:107A4000D1F72D9828EE33E0FA013197F1F7215064
:107A50003040D1F7815061F708953F924F925F9285
:107A60006F927F928F929F92AF92BF92CF92DF924E
:107A7000EF92FF920F931F93CF93DF93000080E16B
:107A80008093C4001092C50088E18093C10086E015
:107A90008093C2005098589A259A81E00E94143D24
:107AA00024E1F22E9EE1E92E85E9D82E0FE0C02ECA
:107AB00010E1B12EAA24A394B1E49B2EA6E58A2E50
:107AC000F2E57F2EE0E26E2E79E4572E63E5462E36
:107AD00050E5352E0E94763C8033B1F18133B9F107
:107AE000803409F46FC0813409F476C0823409F41B
:107AF00085C0853409F488C0803531F1823521F1A3
:107B0000813511F1853509F485C0863509F48DC0BC
:107B1000843609F496C0843709F403C1853709F423
:107B200072C1863709F466C0809103018F5F80932C
:107B30000301853079F6E0910401F0910501099582
:107B40000E94763C803351F60E94F33CC3CF0E94E2
:107B5000763C803249F78091C00085FFFCCFF092DF
:107B6000C6008091C00085FFFCCF9092C600809136
:107B7000C00085FFFCCF8092C6008091C00085FFC9
:107B8000FCCF7092C6008091C00085FFFCCF609250
:107B9000C6008091C00085FFFCCF5092C600809146
:107BA000C00085FFFCCF4092C6008091C00085FFD9
:107BB000FCCF3092C6008091C00085FFFCCFB09210
:107BC000C60088CF0E94763C863808F4BDCF0E945C
:107BD000763C0E94F33C7ECF0E94763C803809F4CC
:107BE0009CC0813809F40BC1823809F43CC1883942
:107BF00009F48FC080E00E94C73C6CCF84E10E94F2
:107C0000BD3C0E94F33C66CF85E00E94BD3C0E94D3
:107C1000F33C60CF0E94763C809306010E94763C44
:107C2000809307010E94F33C55CF0E94763C80333D
:107C300009F41DC183E00E94BD3C80E00E94C73C66
:107C400049CF0E94763C809309020E94763C809343
:107C5000080280910C028E7F80930C020E94763C79
:107C6000853409F415C18091080290910902892B8D
:107C700089F000E010E00E94763CF801E85FFE4FDA
:107C800080830F5F1F4F80910802909109020817AF
:107C9000190788F30E94763C803209F045CF809125
:107CA0000C0280FF01C16091060170910701660F0F
:107CB000771F7093070160930601A0910802B091AD
:107CC00009021097C9F0E8E0F1E09B01AD014E0F09
:107CD0005F1FF999FECF32BD21BD819180BDFA9A17
:107CE000F99A2F5F3F4FE417F50799F76A0F7B1F4B
:107CF00070930701609306018091C00085FFFCCF5F
:107D0000F092C6008091C00085FFFCCFB092C60003
:107D1000E1CE83E00E94C73CDDCE82E00E94C73CFA
:107D2000D9CE0E94763C809309020E94763C8093D3
:107D300008028091060190910701880F991F909386
:107D40000701809306010E94763C853409F4A6C0A1
:107D500080910C028E7F80930C020E94763C8032D0
:107D600009F0B8CE8091C00085FFFCCFF092C6002C
:107D7000609108027091090261157105B9F140E046
:107D800050E080910C02A82FA170B82FB27011C0E2
:107D9000BB2309F45CC0E0910601F0910701319624
:107DA000F0930701E09306014F5F5F4F46175707B7
:107DB000E8F4AA2369F3F999FECF209106013091E6
:107DC000070132BD21BDF89A90B58091C00085FFB2
:107DD000FCCF9093C6002F5F3F4F30930701209355
:107DE00006014F5F5F4F4617570718F38091C00099
:107DF00085FDE5CE8091C00085FFF8CFE0CE81E023
:107E00000E94C73C67CE0E94763C803209F08CCE3F
:107E10008091C00085FFFCCFF092C6008091C00029
:107E200085FFFCCFE092C6008091C00085FFFCCFAB
:107E3000D092C6008091C00085FFFCCFC092C600E2
:107E40008091C00085FFFCCFB092C60043CEE09188
:107E50000601F091070194918091C00085FFFCCF4D
:107E60009093C6009CCF80E10E94C73C33CE0E9415
:107E7000763C0E94763C182F0E94763C112309F430
:107E800083C0113009F484C08FE00E94C73C22CE29
:107E900080910C02816080930C02E5CE80910C02EF
:107EA000816080930C0259CF809107018823880F4D
:107EB000880B8A2180930B02809106019091070123
:107EC000880F991F90930701809306018091080203
:107ED00080FF09C080910802909109020196909359
:107EE000090280930802F894F999FECF1127E091D6
:107EF0000601F0910701C8E0D1E08091080290915D
:107F00000902103091F40091570001700130D9F34B
:107F100003E000935700E89500915700017001308D
:107F2000D9F301E100935700E89509901990009169
:107F3000570001700130D9F301E000935700E89534
:107F40001395103498F011270091570001700130FB
:107F5000D9F305E000935700E895009157000170B0
:107F60000130D9F301E100935700E895329602976A
:107F700009F0C7CF103011F00296E5CF112480919F
:107F8000C00085FFB9CEBCCE8EE10E94C73CA2CD19
:0C7F900085E90E94C73C9ECDF894FFCF0D
:027F9C00800063
:040000030000780081
:00000001FF